:020000040800F2
:10000000583C002045020008FB3C0008F135000880
:10001000F93C0008371600081942000800000000EB
:10002000000000000000000000000000AD0100081A
:100030003916000800000000F1010008273F000801
:100040005F0200085F0200085F0200085F0200080C
:100050005F0200085F0200085F0200085F020008FC
:100060005F0200085F0200085F0200085F020008EC
:100070005F0200085F0200085F0200085F020008DC
:100080005F0200085F0200085F0200085F020008CC
:100090005F0200085F0200085F0200085F020008BC
:1000A0005F0200085F0200085F0200085F020008AC
:1000B0005F0200085F0200085F0200085F0200089C
:1000C0005F0200085F0200085F0200085F0200088C
:1000D0005F0200080D4200085F0200085F0200088E
:1000E0005F0200085F0200085F02000800F002F8EB
:1000F00000F04DF80AA090E8000C82448344AAF175
:100100000107DA4501D100F042F8AFF2090EBAE872
:100110000F0013F0010F18BFFB1A43F0010318473B
:10012000B8780000D8780000103A24BF78C878C1A9
:10013000FAD8520724BF30C830C144BF04680C60ED
:10014000704700000023002400250026103A28BF35
:1001500078C1FBD8520728BF30C148BF0B60704739
:10016000662907F03083752900F00A81732900F0B1
:100170002085002070471FB500F020FD04000020FE
:10018000002107F05FF8E0601FBD10B510BD00F062
:1001900015FE1146FFF7EFFF04F03AFD00F033FEC5
:1001A00003B4FFF7F2FF03BC00F076FE224B1968A0
:1001B0000868B0E8F00F80F30988BFF36F8F4FF045
:1001C000000080F311884EF00D0E70470000000013
:1001D00006480068006880F3088862B661B6BFF31D
:1001E0004F8FBFF36F8F00DF00BF00BF08ED00E04F
:1001F000EFF30980BFF36F8F0F4B1A6820E9F00F00
:10020000106008B54FF0500080F31188BFF34F8F96
:10021000BFF36F8F06F0BAF84FF0000080F311883B
:10022000BDE8084019680868B0E8F00F80F3098855
:10023000BFF36F8F704700BF30000020EFF30580E1
:10024000704700000948804709480047FEE7FEE77D
:10025000FEE7FEE7FEE7FEE7FEE7FEE7FEE7FEE776
:1002600004480549054A064B70470000BF3F000897
:10027000ED00000858360020583C00205838002077
:1002800058380020B2F120030AD5C2F1200320FA29
:1002900002F001FA03F321FA02F140EA0300704789
:1002A00021FA03F04FF00001704700000FB41CB5B5
:1002B0000C0007AA009001D02044401E074B7B444D
:1002C00069460190069800F042FC002C03D0694674
:1002D000002000F04FFC1CBC5DF814FBBD080000C2
:1002E00070B5044685690068C10601D5302600E076
:1002F0002026C00707D070BDD4E9012130469047C1
:10030000206A401C20626D1EF6D570BD70B5044693
:1003100085690078C00707D170BDD4E9012120208C
:100320009047206A401C20626D1EF6D570BD70B5E6
:100330000C460546012A05D02878800600D5EA69D2
:10034000002302E0012305E05B1C934202D2E05C43
:100350000028F9D1A869E618C01AA861286A1844CB
:1003600028622846FFF7BCFF04E0D5E9012114F814
:10037000010B9047B442F8D32846FFF7C7FF70BD82
:100380002DE9F0410646002410687529314616A56E
:1003900010D0AFF30080002802DA404213A507E036
:1003A00031688A0701D512A502E0490704D511A5D5
:1003B000012401E0AFF3008000210A2206F12407A6
:1003C00009E0B0FBF2FCB0FBF2F302FB1C003030A2
:1003D00078541846491C0028F3D123462A46304653
:1003E000BDE8F04100F045B9000000002D0000001C
:1003F0002B000000200000002DE9F05F8946044634
:100400004FF0000ADFF824B1FB44C0F820A02046DA
:10041000E168884700287DD0252806D0D4E901214D
:100420009047206A401C2062F1E700255F46204685
:10043000E16888472028064607DB312E05D2B81927
:1004400010F8200C08B10543F1E7A80701D525F005
:100450000405C4F81CA00027C4F818A02A2E09D04F
:10046000304603F0FEFE38B304EB8708303EC8F890
:10047000186019E059F8041B204604EB87029161CB
:10048000E1688847012F064618D1E069002820DA84
:1004900025F020051DE0D8F8180000EB800006EBE1
:1004A00040003038C8F818002046E1688847064602
:1004B00003F0D7FE0028EED1012F0AD02E2E08D14E
:1004C0002046E16888477F1C0646022F45F020053C
:1004D000C4DBA069002803DA404245F00105A061B1
:1004E000E80701D025F01005A6B1A6F141001928B2
:1004F00002D8203645F400654A463146204625603C
:100500004D46FFF72DFE60B1012807D0ED1D25F007
:10051000070000E007E000F1080978E705F10409A9
:1005200075E730467AE7206ABDE8F09FFA7400006C
:10053000032A40F2308010F0030C00F0158011F80F
:10054000013BBCF1020F624498BF11F801CB00F8E7
:10055000013B38BF11F8013BA2F1040298BF00F83B
:1005600001CB38BF00F8013B11F0030300F02580F8
:10057000083AC0F0088051F8043B083A51F804CB1F
:10058000A0E80810F5E7121D5CBF51F8043B40F8E5
:10059000043BAFF30080D20724BF11F8013B11F8F0
:1005A00001CB48BF11F8012B24BF00F8013B00F834
:1005B00001CB48BF00F8012B704710B5203AC0F0BE
:1005C0000B80B1E81850203AA0E81850B1E8185054
:1005D000A0E81850BFF4F5AF5FEA027C24BFB1E891
:1005E0001850A0E8185044BF18C918C0BDE8104002
:1005F0005FEA827C24BF51F8043B40F8043B08BF0B
:100600007047D20728BF31F8023B48BF11F8012BD1
:1006100028BF20F8023B48BF00F8012B70474FF07D
:10062000000200B5134694469646203922BFA0E842
:100630000C50A0E80C50B1F12001BFF4F7AF09074E
:1006400028BFA0E80C5048BF0CC05DF804EB89003F
:1006500028BF40F8042B08BF704748BF20F8022B82
:1006600011F0804F18BF00F8012B7047704770479A
:1006700070472DE9F0470D4699469246044600F131
:1006800024080168880604D5E06921F01001216082
:1006900000E00120A84201DD471B00E00027A1691E
:1006A0007A1902EB0900081AA0612078C00602D46A
:1006B0002046FFF715FE002608E0D4E901211AF8CC
:1006C00006009047206A401C761C20624E45F4DBF1
:1006D0002078C0060AD52046FFF702FE06E0D4E9DE
:1006E000012130209047206A401C2062381EA7F16B
:1006F0000107F4DC07E0D4E9012118F80500904770
:10070000206A401C2062281EA5F10105F3DC20466A
:10071000FFF7FCFD2078000602D50220BDE8F08737
:100720000120FBE770472DE9FF4F0C461E464FF0B6
:10073000FF378BB0D2E90001DDF860800A908A466D
:10074000C1F30A5505B93D46002108464FF00000A7
:10075000BAF1000F00F4400005DA00EB80004FF41E
:10076000400101EA50004FEA9059B9F1010F00DD54
:10077000B9460A9850EA4A000ED044F61050A5F245
:10078000FF3545432F14B8F1000F1ED07542291EC6
:100790001EDDC9F100021CE0B8F1010F4FF00000AE
:1007A00001D0302103E0F24305E02154401CB04267
:1007B000FBDB30460022002121540B99C1F8088050
:1007C000C1E900200FB0BDE8F08FBD1B6D1CDEE756
:1007D0004A4600DA694206A800F07AFA06AB93E8C6
:1007E000070003AB83E8070050460A9900F05BFB63
:1007F0008DE80700A0F500501F3800900398002DE9
:100800000ADD42F21F014A460844002303A903906F
:10081000684600F0C4FD09E0A0F500504A461F38C4
:10082000002303A90390684600F0CEFD8DE8070081
:100830000004000C03D04FF0FF30410800E01046E8
:10084000B8F1000F03D00022009215461EE0751E7D
:1008500005D400F0B7F9303262556D1EF9D5B346B4
:100860000122084302D000227F1C04E020783028B7
:1008700001D100227F1E002A099784D01DE0112D8E
:1008800007DA00F09FF9303262556D1C50EA010220
:10089000F5D1084302D00098C8B10EE00021681ECF
:1008A00005E0235C625C63542254401E491C814273
:1008B000F7DBAB46A81B401E0990002004F80B0094
:1008C0000B98099AC0F80880C0E9002B7AE7112636
:1008D0004FF0000857E72DE9F04F88460446D21D37
:1008E00022F0070191B0D1E90001CDE90A0103F03E
:1008F00094FC02460B98C00F01D02D2007E0206821
:10090000810701D52B2002E0202101EAC000032A43
:10091000099001D0072A05DB03464146204600F036
:1009200097F90BE12078800601D5E06900E0062008
:10093000B8F1650F814606D0B8F1660F18D0B8F14E
:10094000670F70D131E00020B9F1110F009001DB89
:10095000112301E009F101030AAA01A90CA8FFF77C
:10096000E2FEDDE90C70002609F10105834647E04F
:1009700001204B4600904FF000470AAA01A90CA89D
:10098000FFF7D1FEDDE90DB00C995D46002610B9E8
:1009900009F101000D18B9EB050003D4C0F1FF36D1
:1009A00009F10105A5EB09002BE0B9F1010F01DA0E
:1009B0004FF001090020B9F1110F0090484601DD08
:1009C000112300E003460AAA01A90CA8FFF7ABFE19
:1009D000DDE90C704D4600268346207800070AD4D6
:1009E000AB4500DA5D4601A8012D04DD411911F87F
:1009F000011C302907D04F4502DA17F1040F04DA41
:100A0000012082460FE06D1EEEE7002F02DCED1B99
:100A10003E4403E0781CA84200DD7D1CB81B00F1B9
:100A2000010A4FF000472078000703D4AA4501DBF4
:100A30004FF0FF3A0021B7F1004F0DF143088DF858
:100A4000431024D002202B23002F01DA7F422D23D4
:100A50000A21021EA0F1010000DC5FB197FBF1FC4E
:100A600097FBF1F201FB1C7C17460CF1300C08F8E7
:100A700001CDEEE7A8F1010003702188090501D539
:100A8000452100E06521A0F1010800F8011C09984A
:100A90000FA9A1EB0807FF1D00B10120411901EBCF
:100AA000EA70A1693844081A401EA0612078C00687
:100AB00002D42046FFF714FC099828B1D4E901219B
:100AC0009047206A401C20622078C00622D520462C
:100AD000FFF706FC1EE0002E04DBB34502DD01A893
:100AE000805D00E03020D4E901219047206A401C5D
:100AF0002062761CAAF101005FEA000A0AD100F028
:100B00005DF8C0680168405CD4E901219047206A23
:100B1000401C2062281EA5F10105DCDC07E0D4E9B9
:100B2000012118F8010B9047206A401C2062381EF2
:100B3000A7F10107F3DC2046FFF7E8FB032011B023
:100B400041E6000001694A1C02610878704700B55F
:100B50008FB0CDE901310021059105497944CDE9F6
:100B6000031011466846FFF747FC0FB000BD0000B8
:100B7000E5FFFFFF0A6802F8010B0A607047D1E940
:100B800000239A4202D2531C0B601070704710B5BC
:100B9000436913B1AFF3008001E0FFF7C8FB012008
:100BA00010BD127800F124010A7000224A7001225F
:100BB000EDE711684FF0FF32E9E7000000487047A9
:100BC0001836002030B5B0F10A024FEA900E71F1EC
:100BD00000034EEA817EB0EB0E0061EB91014FEA1B
:100BE000101E4EEA017E10EB0E0041EB11114FEA90
:100BF000102E4EEA016E10EB0E0041EB11214FEA70
:100C0000104E4EEA014E10EB0E0041EB1141401820
:100C100041F100014FEAD00040EA41704FEAD101B2
:100C200010EB80054FEA810444EA907444EB010420
:100C30006D1944EB0404521BA3414FF0000348BF5D
:100C40000A3200D530BD401C41F1000130BD00002A
:100C50002DE9F0411F46044603260168072A01F4E6
:100C6000006004DB08B116A505E016A503E008B195
:100C700015A500E015A521F010002060A069C01E98
:100C8000A0610FB1401EA0612046FFF729FB4FB1C4
:100C9000D4E9012138469047206A401C2062C01CDC
:100CA000206206E0206AFAE7D4E9012115F8010B79
:100CB0009047761EF8D22046FFF728FBBDE8F0816A
:100CC0004E414E006E616E00494E4600696E6600F0
:100CD0002DE9F047814616468AB0354878440DC85C
:100CE0008DE80D0032487844801C03AC0DC884E8C0
:100CF0000D0041F69B300844372190FBF1F290FB48
:100D0000F1F5A5F1800501FB12041B3C02D56442FC
:100D1000012000E00020DFF898A080460027FA4478
:100D2000AAF1BE0A0EE0E0070AD03246684607EB99
:100D3000470101230AEB810100F046FB8DE8070023
:100D400064107F1C002CEED1194F7F44AE3F19E098
:100D5000E80715D007EB04100DF1180A90E80E0013
:100D60008AE80E00C068F04201D198190890324616
:100D7000012306A903A800F027FB03AB83E80700C3
:100D80006D10641C002DE3D14FF00103324669461B
:100D9000B8F1000F03A802D000F001FB01E000F061
:100DA00013FBC9E90001C9F808200AB0BDE8F087C3
:100DB000B46C000000487047F83500207546FFF716
:100DC000F9FFAE4605006946534620F00700854608
:100DD00018B020B5FFF744FABDE820404FF00006F8
:100DE0004FF000074FF000084FF0000B21F0070113
:100DF000AC46ACE8C009ACE8C009ACE8C009ACE856
:100E0000C0098D46704710B50446AFF300802046F8
:100E1000BDE81040FFF7C4B94FF0013C50F8042B77
:100E200051F8043B9A4221D1A2EB0C03934313EAFD
:100E3000CC1317D150F8042B51F8043B9A4215D12A
:100E4000A2EB0C03934313EACC130BD150F8042B01
:100E500051F8043B9A4209D1A2EB0C03934313EAE5
:100E6000CC13DBD04FF00000704700BFD01A01BA9E
:100E7000B1FA81F101F0180122FA01F0CB40C1F181
:100E80002001DBB2C0B2C01A2CFA01F3D11A91438F
:100E900011EAC311E6D1704701491820ABBEFEE745
:100EA0002600020070475FEA400C08BF91F0000F77
:100EB0004FEA8C234FEAC12243EA51514FEA1C50BA
:100EC00018BF00F5F0404FEA300018BF41F0004174
:100ED0005FEA6C5C00F02980BCF1FF3F08BF40F086
:100EE00080407047130C06BF12044FF0100C4FF0F7
:100EF000000C130E04BF12020CF1080C130F04BFF8
:100F000012010CF1040C930F04BF92000CF1020CBF
:100F1000D30F04BF52000CF1010C11464FF0000238
:100F2000A0F11F00A0EB0C00704711F0004F08BFAC
:100F3000704731F000413FF4D5AF0B0C06BF0904F8
:100F40004FF0100C4FF0000C0B0E04BF09020CF117
:100F5000080C0B0F04BF09010CF1040C8B0F04BF2C
:100F600089000CF1020CCB0F04BF49000CF1010CFD
:100F7000CCF12003A0EB0C0022FA03F302FA0CF2EE
:100F800041EA030100F10100704720F07F4C80EA44
:100F9000030023F07F47ACEB070303F57C5300F01D
:100FA000004003F1FF032DE980494FEA154B09B4D6
:100FB0004FEA144325EA0B4E24EA03480FF20426B5
:100FC00006EB132749083E785FEA320203FB066707
:100FD000C7F5000707FB06F64FEA54374FEAD64637
:100FE00006F1020607FB066CCCF1005C4FEA1C47D9
:100FF0002CEA074C07FB06F40CFB06F504EB154640
:101000004FEA961634BF00204FF000404FEAD13728
:1010100006FB07FC4FEA1C4C0CFB0BF7D21B03FB37
:101020000CF761EB07010CFB0EF7B0EB074072EB1E
:1010300017420CFB08F734BFA2EB0742B2EB0742A2
:1010400061EB17414FEA0C444FEA910706FB07FC9E
:101050004FEA1C4C0CFB0BF7B0EBC74072EB57325E
:1010600003FB0CF734BFA2EBC742B2EBC74261EB04
:1010700057310CFB0EF7B0EBC70072EB57720CFB4D
:1010800008F734BFA2EBC702B2EBC70261EB57719E
:10109000039F4FEA816141EA921104EBCC044FEACD
:1010A000D1374FEA826206FB07FC42EA90124FEA10
:1010B00080604FEA1C4C0CFB0BF7D21B03FB0CF7B8
:1010C00061EB07010CFB0EF7B0EB074072EB174228
:1010D0000CFB08F734BFA2EB0742B2EB074261EB0F
:1010E00017414FEA8C554FEA910704EB9C2406FB0D
:1010F00007FC4FEA1C4C0CFB0BF7B0EBC74072EB44
:10110000573203FB0CF734BFA2EBC742B2EBC74226
:1011100061EB57310CFB0EF7B0EBC70072EB577267
:101120000CFB08F734BFA2EBC702B2EBC70261EBBE
:10113000577115EB4C254FEA816141EA92114FEA54
:1011400082624FEAD13742EA901206FB07FC44F173
:1011500000044FEA80604FEA1C4C0CFB0BF7D21BDB
:1011600003FB0CF761EB07010CFB0EF7B0EB07403C
:1011700072EB17420CFB08F734BFA2EB0742B2EB4D
:10118000074261EB174115EB1C154FEA813141EA2B
:1011900092414FEA823242EA90424FEA80304FEA6F
:1011A0000C7644F1000448EA03434EEA0B484FF042
:1011B000000EB2EB080C71EB030724BF6246394600
:1011C0004EEB0E0E4FF0000B0018524149414BEB15
:1011D0000B0BB2EB080C71EB03077BF1000B24BF88
:1011E000624639464EEB0E0E4FF0000B001852418E
:1011F00049414BEB0B0BB2EB080C71EB03077BF196
:10120000000B24BF624639464EEB0E0E51EA020730
:1012100018BF46F0010616EB0E7655F1000254F1A8
:10122000000103D5BDE88901BDE80088BDE889015A
:10123000BDE80048B619524141EB0101A3F1010399
:10124000704780807F7E7D7C7B7A79787776767533
:101250007473727171706F6E6E6D6C6C6B6A6A69AB
:101260006868676666656464636362616160605F45
:101270005F5E5E5D5D5C5C5B5B5A5A5959585857BE
:101280005756565555555454535352525251515026
:1012900050504F4F4F4E4E4D4D4D4C4C4C4B4B4B79
:1012A0004A4A4A49494948484847474747464646BF
:1012B00045454544444444434343434242424241FA
:1012C0004141002B9C4630D477002BD01CB54FEA0F
:1012D000370703B44FF010004FF01001BAF1000FC0
:1012E00006D0BCF1000FDCBF40F0080040F0080160
:1012F0004FF000000FBCBDE810400BF1010BBBF13B
:10130000010F08BF5FEA170722BF12F1010211F1B6
:1013100001014FF0004143F1000300F0004043EAB7
:1013200000007047F9D35708D0E746EA064613F1A4
:10133000400F4FEA16461FDD13F1200FDFBF1643A3
:101340000A46002120335B42BED0C3F1200746EAA3
:10135000064602FA07F74FEA164646EA0706C3F1C1
:10136000200722FA03F201FA07F721FA03F14FF0FE
:10137000000342EA0702A7E746EA020646EA0646F3
:101380004FEA164646EA0106BCBF46EA0646360C58
:101390004FF000034FF000024FF0000194E72DE9F9
:1013A000804C9A46934670B491E8380007C831EAF9
:1013B000400C48BF34EA430C03D5FFF7E6FDFFF7C6
:1013C00080FFF0BCBDE8008C2DE9804C9A46934626
:1013D00070B491E8380007C810F0804F08BF13F0D0
:1013E000804F03D100F005F8FFF76BFFF0BCBDE8BC
:1013F000008C20F07F4780EA030023F07F4C07EB4E
:101400000C03A3F57C5300F00040A3F1FE0392F01F
:10141000000F00F0B38095F0000F00F077802DE909
:1014200001494FEA11404FEA144621EA004800FB07
:1014300006FC24EA064708FB06F607FB08F800FB53
:1014400007F718EB06484CEB164C4FEA124B18EB1B
:1014500007484FEA15464CEB174022EA0B4E0BFBB0
:1014600006FC25EA06470EFB06F607FB0EFE0BFB05
:1014700007F71EEB064E4CEB164C4FF000061EEB2A
:10148000074E4CEB174B18EB0B0840F1000018EB24
:101490000E0B58EB000840F100008F1A4FF00001CE
:1014A0003CBFC943661B14BFB5EB040C00213CBF15
:1014B000C943F61B4FEA17444EEA8E0E27EA04454D
:1014C0004FEA1C4704FB07622CEA074C05FB07F7B1
:1014D0000CFB05F604FB0CFC16EB074642EB17422F
:1014E00016EB0C4642EB1C421BEB060658EB0202C5
:1014F000414146EA9E0601D5BDE80189B61952412F
:1015000041EB0101A3F10103BDE801894FEA144554
:101510004FEA114724EA054621EA074C05FB07F488
:1015200006FB07F70CFB06F105FB0CFC11EB074172
:1015300044EB17444FEA124711EB0C4144EB1C44B7
:1015400022EA074C05FB07F206FB07F70CFB06F641
:1015500005FB0CFC16EB074642EB174216EB0C465C
:1015600042EB1C456A1854F1000148BF7047B61998
:10157000524141EB0101A3F10103704795F0000FC7
:1015800037D04FEA11424FEA144721EA024624EAD3
:10159000074C02FB07F106FB07F70CFB06F402FB06
:1015A0000CFC14EB074441EB17414FEA154714EBD1
:1015B0000C4441EB1C4125EA074C02FB07F506FBF6
:1015C00007F70CFB06F602FB0CFC16EB074645EB97
:1015D000174516EB0C4645EB1C42121951F1000160
:1015E00048BF7047B619524141EB0101A3F1010315
:1015F00070474FEA14454FEA114724EA054621EAAD
:10160000074C05FB07F106FB07F70CFB06F24FF052
:10161000000605FB0CFC12EB074241EB174112EBF5
:101620000C4251EB1C4148BF7047921841EB01013D
:10163000A3F101037047FEE7704772B6FEE70000B2
:1016400006490020C8610648016941F004010161B2
:10165000016941F04001016170470000E804002089
:1016600000200240064A0021D16106490A6942F081
:1016700002020A614861086940F040000861704751
:10168000E804002000200240044B0022DA61044AF2
:10169000136943F00103136101807047E8040020DF
:1016A0000020024014480022C168CB06134904D52B
:1016B000CA6942F00202CA611022C3685B0705D5FD
:1016C000CB6943F00103CB6142F00402C369DB073D
:1016D00007D0CB6943F00403CB61C16921F001015C
:1016E000C161A2F58071013901D0C2607047C16942
:1016F00021F00101C161704700200240E804002090
:1017000070B5054600F0E0FA0646114C09E0681C89
:1017100007D025B100F0D8FA801BA84201D90320D8
:1017200070BDE068C007F2D1E068800601D52020D6
:10173000E060E068C00605D4E069C00702D1E06857
:10174000400703D5FFF7AEFF012070BD002070BD3C
:101750000020024010B590F821100022022905D087
:101760000421816380F82020012010BD01680B68EE
:1017700023F00E030B6001680B6823F001030B607C
:1017800090F84030C46B012101FA03F3636080F8E4
:10179000211080F82020104610BD000010B590F8F0
:1017A00021100024022903D00421816301243DE09B
:1017B00001680A6822F00E020A6001680A6822F0D5
:1017C00001020A601A4A0168914201D1012121E017
:1017D000174A1432914201D110211BE0144A2832D9
:1017E000914201D1891515E0114A3C32914201D153
:1017F00089140FE00E4A5032914202D14FF48031E9
:1018000008E00B4A6432914202D14FF4801101E0AA
:101810004FF08071064A083A5160012180F821108A
:10182000002180F82010416B01B18847204610BD8F
:101830000800024070B5044600F046FA0546601CF8
:1018400002D004480078044400F03EFA401BA04255
:10185000FAD370BD240000202DE9F0470546264844
:101860000F460126017E01290FD001218146017614
:101870002868DFF888804CF25034022808D0A2464D
:101880002046FFF73DFFA8B131E00220BDE8F08718
:101890002046FFF735FF08BB0120FFF7D1FE2046A9
:1018A000FFF72EFFD8F81010064621F00401C8F803
:1018B00010101CE04FF0FF303860AC6811E020469B
:1018C000FFF7D0FE5046FFF71BFFD8F810100600B8
:1018D00021F00201C8F8101001D03C6007E004F5C7
:1018E0008064D5E9020100EB8120A042E7D8002105
:1018F00089F818103046C9E7E804002000200240AB
:101900000348016941F08001016100207047000037
:10191000002002402DE9F05F07461C48884600245D
:10192000017E15461E46012909D001218146017616
:101930004CF2503A5046FFF7E3FE18B122E0022085
:10194000BDE8F09F012F02D0022F00D00427D3461C
:10195000DFF83CA0220128463146FEF793FC81B215
:1019600008EB4400FFF790FE5846FFF7C9FEDAF88F
:10197000102022F00102CAF8102018B9641CE4B249
:10198000BC42E7D3002289F81820D9E7E8040020F8
:1019900000200240064900200A69120607D5054AC0
:1019A0004A60054A4A600969090600D50120704766
:1019B0000020024023016745AB89EFCD2DE9F043BC
:1019C00000233E4F0F2573E001229A400A406DD05C
:1019D00023F00304E619D6F808809C074FEA147C2C
:1019E00005FA0CF909EA0804DFF8D480404502D171
:1019F0004FF0000816E0DFF8CC80404502D14FF0F0
:101A000001080FE0DFF8C080404502D14FF0020826
:101A100008E0DFF8B880404502D14FF0030801E04C
:101A20004FF0040808FA0CF8A04522D1284CD4F84D
:101A300000C02CEA020CC4F800C0241DD4F800C079
:101A40002CEA020CC4F800C0214C0C34D4F800C0BD
:101A50002CEA020CC4F800C0241FD4F800C02CEA01
:101A6000020CC4F800C0D6F808C02CEA090CC6F86D
:101A700008C0FF2A01D8064601E000F104064FEA3B
:101A8000830401D9A4F12004D6F800C005FA04F8B3
:101A90002CEA080C4FF0040808FA04F84CEA080C89
:101AA000C6F800C0C46824EA0204C46003F101035C
:101AB00031FA03F288D1BDE8F08300000000014054
:101AC00000080140000C01400010014000140140DA
:101AD000000401402DE9F84FDFF8B8910024A9F186
:101AE000040B23460F2709F1040AABF1040EC9E0E9
:101AF0000125A5402A40AA427DD1674ED1F804C0F5
:101B0000ACEB0608B44532D014DCBCF1030F3AD07C
:101B100009DCBCF1000F2AD0BCF1010F1CD0BCF1D4
:101B2000020F31D11DE0BCF1110F17D0BCF1120F23
:101B30002AD119E0B8F5881F19D006DCB8F5803F26
:101B400015D0B8F5801F1FD111E0B8F5001F0ED0D9
:101B5000B8F5041F18D10AE0CB6815E0CB681B1D4F
:101B600012E0CB6808330FE0CB680C330CE08B68D5
:101B70002BB1012B4FF0080303D0456104E004238F
:101B800002E0056100E00023FF2A01D8064601E0DB
:101B900000F104064FEA840501D9A5F12005D6F825
:101BA000008007FA05FC28EA0C0803FA05F548EA64
:101BB0000508C6F800804D68ED0062D5374DAE6966
:101BC00046F00106AE61AD6924F0030605F001059B
:101BD0000095334D06EB050CDCF80850A607360FD0
:101BE00007FA06F825EA0805DFF8B880404503D172
:101BF0004FF0000817E044E0DFF8AC80404502D128
:101C00004FF001080FE0DFF8A480404502D14FF00B
:101C1000020808E0DFF89880404502D14FF0030841
:101C200001E04FF0040808FA06F848EA0508CCF885
:101C300008804D68D9F80060ED024D4601D5164385
:101C400000E096432E604D68DAF80060AD0255461C
:101C500001D5164300E096432E604D68DBF8006026
:101C6000AD035D4601D5164300E096432E604D68F6
:101C7000DEF80060ED03754601D5164300E096439B
:101C80002E60641C0D682A46E5407FF431AFBDE844
:101C9000F88F0000080401400000111000100240FD
:101CA0000000014000080140000C0140001001400C
:101CB000001401408068084000D0012070470AB13C
:101CC000016170470904FBE7014880687047000024
:101CD0002400002070B5040025D094F83D000025B4
:101CE00020B984F83C50204600F0CAFB242084F838
:101CF0003D002068016821F0010101602068016851
:101D000041F4004101602068016821F40041016054
:101D100000F02CFE4D4A6168914201D84C4900E028
:101D20004C49884201D2012070BD4B492368B0FB69
:101D3000F1F15E6826F03F060E435E6063689342F1
:101D400006D94FF4967359434FF47A73B1FBF3F10C
:101D50002368491C1E6A26F03F06314319626168F8
:101D6000914210D84900401EB0FBF1F2521CC2F360
:101D70000B02042A01D2042022E0B0FBF1F0401C47
:101D8000C0F30B001CE0A268F2B301EBC10303EB4C
:101D90000116431EB3FBF6F35B1C43F480431B05A3
:101DA00049D092B301EBC10202EB0111401EB0FB1E
:101DB000F1F0401CC0F30B0040F4804040F40040C0
:101DC0002168CA694CF6FF739A431043C861D4E98D
:101DD000071001432068026822F0C002114301602D
:101DE000D4E9030101432068826848F2FF339A4333
:101DF00011438160D4E9050108432168CA6822F0D3
:101E0000FF021043C86001E00EE016E020680168A0
:101E100041F0010101602564202084F83D00256324
:101E200084F83E50002070BD01EB4106431EB3FB19
:101E3000F6F35B1CB3E70120C2E701EB4101401E52
:101E4000B0FBF1F0401CC0F30B00B7E7A086010027
:101E500080841E0000093D0040420F002DE9FF4F25
:101E600081B089460446FFF72FFF054694F83D00F0
:101E70004FF0000820287DD1192301225049204627
:101E8000009501F019FD002874D194F83C00012858
:101E900070D0012084F83C0020680168C90703D194
:101EA000016841F0010101602068016821F40061CE
:101EB0000160242084F83D00002626644148E06249
:101EC0004FF0011B20272068016841F480710160F8
:101ED0000095002259462046049B01F0EDFC50B1CC
:101EE00020680068C00502D54FF40070206403200C
:101EF00005B0BDE8F08F216809F0FE000861FFF72A
:101F0000E3FE2168054648694969C0F34000C1F312
:101F100080214FF0A00A0FE0FFF7D6FE411B049886
:101F2000814200D808B984F83DA021684869496910
:101F3000C0F34000C1F3802194F83D20A02A02D0D4
:101F400008B90029E8D084F83D7020684169C94388
:101F5000890716D4016841F4007101602068416965
:101F600080691923012216492046009501F0A4FC3E
:101F7000B8B900E021E084F83D7084F83C600020AE
:101F8000B6E7016841F40071016021686FF4806078
:101F90004861192301220A492046009501F08CFC72
:101FA00008B10120A4E7039808F1010880458AD30D
:101FB00084F83D7084F83C60F3E7022098E7000065
:101FC000020010000000FFFF2DE9F84F1F46904669
:101FD0008A460446DDF82890FFF776FE054694F819
:101FE0003D0020287FD11923012240492046009539
:101FF00001F062FC002876D194F83C00012872D0F0
:10200000012084F83C0020680168C90703D10168F9
:1020100041F0010101602068016821F40061016064
:10202000212084F83D00102084F83E00002626641C
:10203000C4F824806785608D20852D48E0622B469A
:102040004A465146204601F0EBFA90B920684169B2
:102050008069009036E02A464946204601F00AFD94
:1020600050B1206C042804D12068016841F400714B
:1020700001600120BDE8F88F606A2168007808617E
:10208000606A401C6062618D491E6185218D491E18
:1020900089B2218522685369DB435B070BD451B1B8
:1020A00000781061606A401C6062608D401E60852F
:1020B000208D401E20852A464946204601F0D0FB4F
:1020C0000028CED1208D0028C5D154F83D0B0168E1
:1020D00041F400710160202004F81E09E67766775C
:1020E0000020C7E7FFE70220C4E70000020010005D
:1020F0000000FFFF2DE9FF4F83B00025DDE91079D7
:102100009A4693460446DDF848800095FFF7DCFDCB
:10211000064694F83D0020287CD1192301228849E5
:102120002046009601F0C8FB0028F5D194F83C0049
:1021300001286FD0012084F83C0020680168C9079D
:1021400003D1016841F0010101602068016821F4B8
:1021500000610160222084F83D00402084F83E00A8
:1021600025646762A4F82A90608D20857548E06236
:10217000CDE9008653465A462046049901F09EFA5E
:1021800000287CD1208DDFF8C091202768B101287C
:1021900014D00228206801681ED041F480610160DB
:1021A0002068416980690090BCE0206841698169CC
:1021B0000091016841F400710160B3E0206801689A
:1021C00021F48061016072B62068416981690091E3
:1021D000016841F400710AE041F40061016072B6E7
:1021E0002068416981690091016821F48061016082
:1021F00062B697E0032865D801280CD00228434630
:102200004FF000024946204600960BD001F054FBE7
:10221000A8BB0CE091E032464146204601F0F2FBBB
:1022200068BB72E001F048FB48BB72B633E020683F
:10223000016821F48061016072B620680069616AFA
:102240000870606A401C6062208D401E2085608D91
:10225000401E60853D4846F2A8110068B0FBF1F0D1
:10226000C0EBC00000EB80000090401E009007D043
:1022700020684069C04340070DD50098F5E727E086
:1022800044F8305F6773A573206940F02000206137
:1022900062B625731CE02068016841F4007101609A
:1022A00020680069616A0870606A401C6062218D64
:1022B000491E2185618D491E618562B621680969C3
:1022C000017026E032464146204601F09BFB18B1E2
:1022D000012007B0BDE8F08F20680069616A0870CE
:1022E000606A401C6062208D401E81B22185608D35
:1022F000401E608520684269D243520712D40329E8
:1023000003D1016821F48061016020680069616A7D
:102310000870606A401C6062208D401E2085608DC0
:10232000401E6085208D00287FF464AF84F83D70E6
:1023300084F83E5084F83C50CBE70220C9E7000007
:10234000020010000000FFFF040001002000002038
:102350002DE9FF4F83B09A46DDE911979346044675
:10236000DDF84080FFF7B0FC054694F83D002028DA
:102370007FD11923012240492046009501F09CFAA3
:10238000002876D194F83C00012872D0012084F80E
:102390003C0020680168C90703D1016841F00101D0
:1023A00001602068016821F400610160212084F847
:1023B0003D00402084F83E0000262664C4F82480B6
:1023C000A4F82A90608D20852C48E062CDE9007544
:1023D00053465A462046049901F0EEF970B930E0B0
:1023E0002A463946204601F045FB58B1206C0428A6
:1023F00004D12068016841F400710160012007B038
:10240000BDE8F08F606A216800780861606A401C4E
:102410006062218D491E89B22185628D521E6285BE
:1024200022685369DB435B070BD469B10078106104
:10243000606A401C6062208D401E2085608D401EB9
:102440006085208D0028CBD12A463946204601F0F0
:1024500007FA0028CAD154F83D0B016841F4007115
:102460000160202004F81E09E67766770020C6E7A1
:10247000FFE70220C3E70000020010000000FFFF9A
:1024800010B586B00021009101910291039100687E
:102490000F4988421AD10F4CA06940F00800A06192
:1024A000A069694600F008000490C0200090122046
:1024B0000190032003900848FFF70CFBE06940F40B
:1024C0000010E061E06900F40010049006B010BD57
:1024D0000054004000100240000C014070B50400A0
:1024E00013D021684CF6CC400860216845F2555065
:1024F0000860D4E9000141602168A0688860FFF7A6
:10250000E3FB054641F23C360DE0012070BD00BF03
:10251000FFF7DAFB401BB04205D92068C06880078E
:1025200001D0032070BD2068C0688007F0D1216809
:102530004AF6AA200860002070BD00684AF6AA2169
:102540000160002070470000024881680278114451
:102550008160704724000020074810B5016841F0F1
:1025600010010160032000F08BF80F2000F006F846
:1025700000F024F8002010BD0020024070B50D4D81
:1025800004464FF47A712878B1FBF0F00A490968E3
:10259000B1FBF0F000F08DFD48B9102C07D20022FD
:1025A0002146501E00F04CF800206C6070BD0120E8
:1025B00070BD000024000020200000200F4808B556
:1025C000816941F001018161816901F0010100919E
:1025D000C16941F08051C161C069002200F08050A2
:1025E00000900F21901E00F02BF80548416821F063
:1025F000E06141F00071416008BD00000010024040
:102600000000014000280DDB00F01F020121914075
:102610004009800000F1E020C0F88011BFF34F8F27
:10262000BFF36F8F7047002809DB00F01F02012104
:1026300091404009800000F1E020C0F8001170478F
:10264000F0B40E4B1B680C46C3F30223C3F107051D
:10265000042D00D90425191D072901D2002300E00B
:10266000DB1E012606FA05F1491E214099409E40D5
:10267000761E16403143F0BC01F0E3BD0CED00E0E6
:10268000064900F0070208684FF6FF03184040EAC9
:102690000220034A10430860704700000CED00E080
:1026A0000000FA05014901200862704700000E424F
:1026B00010B501460020234C012922D0022939D02F
:1026C00010291DD161682268D20119D51E48C1F3B5
:1026D0008342C903805C0AD561681B4AC1F340414B
:1026E000921E515C194AB2FBF1F1484301E01849CE
:1026F00048436168490203D440000321B0FBF1F074
:1027000010BD226AC2F30121012903D1920701D52C
:10271000C80310BD022905D1626A920702D549F6A5
:10272000404010BD0329FCD121688903F9D54FF23F
:10273000244010BD00F02AF96168C1F38131491CC1
:102740004900DBE700100240F678000800127A002A
:1027500000093D002DE9F84305460078354CC007D7
:1027600054D0E0690026C00008D4E06940F08050F1
:10277000E061E069012600F0805000902E48016879
:10278000C90512D40168804641F480710160FFF7E9
:102790009BFA074605E000BFFFF796FAC01B6428C6
:1027A00023D8D8F80000C005F6D5206A10F4407090
:1027B00021D0A98801F4407181421CD0206A1F49B0
:1027C000012220F440700A6000220A602062C007E3
:1027D00011D0FFF779FA074641F2883808E000BFC8
:1027E000FFF772FAC11B414502D90320BDE8F88307
:1027F000206A8007F4D5206A696820F44070084395
:1028000020621EB1E06920F08050E06128788007E6
:1028100005D56068A96820F44040084360602878C6
:10282000C00605D56068E96820F480000843606050
:102830000020DBE7001002400070004040044242EC
:102840002DE9F0470F46050061D0434E306800F097
:102850000700B84209D2306820F0070038433060E2
:10286000306800F00700B84251D128683B4C81071E
:1028700012D5400703D5606840F4E06060602878B6
:10288000000703D5606840F4605060606068A96824
:1028900020F0F000084360602878C00728D06868FE
:1028A000012810D02168022810D0890700292EDACB
:1028B000616821F0030101436160FFF705FA80467A
:1028C00041F288390DE021688903EFE78901EDE7DE
:1028D000FFF7FAF9A0EB0801494502D90320BDE84A
:1028E000F0876068696800F00C00B0EB810FEFD1F1
:1028F000306800F00700B8420BD9306820F00700BC
:1029000038433060306800F00700B84201D0012041
:10291000E5E72878400705D56068E96820F4E060BD
:10292000084360602878000706D56068296920F4AC
:10293000605040EAC100606000F038F86168084A01
:10294000C1F30311515CC84006490860064800689D
:10295000FFF714FE0020C2E70020024000100240F2
:10296000A67800082000002028000020044805491F
:1029700000684968044AC1F30221515CC8407047AD
:102980002000002000100240B678000804480549E5
:1029900000684968044AC1F3C221515CC8407047CD
:1029A0002000002000100240B67800080E4A51684E
:1029B0000E4801F00C03042B11D0082B0FD10C484A
:1029C000C1F38343C903C05C0AD55168084AC1F307
:1029D0004041921E515C054A5043B0FBF1F07047F4
:1029E00004494843704700000010024000127A007A
:1029F000E478000800093D002DE9F84F040070D08C
:102A00002078C04DC00749D06868C0F38100012814
:102A100007D06868C0F38100022809D16868C00344
:102A200006D52868800339D560680028E7D035E0EE
:102A30006068B0F5803F0BD010B1B0F5A02F11D079
:102A4000286820F480302860286820F4802002E084
:102A5000286840F480302860606890B1FFF734F94E
:102A600006460AE0286840F480202860F0E700BFAE
:102A7000FFF72AF9801B642873D828688003F7D5EC
:102A80000CE0FFF721F9064605E000BFFFF71CF94F
:102A9000801B6428F0D828688003F7D420789A4EE9
:102AA00080074FF001094FF0000839D5686810F031
:102AB0000C0F07D06868C0F38100022809D168684C
:102AC000C00306D42868800714D52069012808D1DE
:102AD00010E02069B0B1C6F80090FFF7F5F807469E
:102AE00005E00AE1FFF7F0F8C01B0228C4D8286807
:102AF0008007F7D52868616920F0F80040EAC10036
:102B000028600DE0C6F80080FFF7DEF8074604E015
:102B1000FFF7DAF8C01B022823D828688007F7D40B
:102B2000207800072CD57948A169D9B1C0F8009068
:102B3000FFF7CAF8074604E0FFF7C6F8C01B0228F3
:102B40000FD8686A8007F7D571484FF4FA510068CA
:102B5000B0FBF1F0009000BF0098411E0091FAD246
:102B60000EE080E0C0F80080FFF7AEF8074604E012
:102B7000FFF7AAF8C01B022875D8686A8007F7D447
:102B80002078400760D5E8690027C00008D4E869CC
:102B900040F08050E861E869012700F08050009023
:102BA0005C480168C90513D40168834641F480710B
:102BB0000160FFF789F8824606E000BFFFF784F85E
:102BC000A0EB0A0064284ED8DBF80000C005F5D55C
:102BD000E06801280AD008B1052813D0286A20F03F
:102BE00001002862286A20F0040002E0286A40F010
:102BF00001002862E06841F2883B98B1FFF764F871
:102C000082460BE0286A40F004002862EEE700BF2D
:102C1000FFF75AF8A0EB0A0159455AD8286A8007ED
:102C2000F6D50CE0FFF750F8824605E0FFF74CF8C8
:102C3000A0EB0A0159454CD8286A8007F6D41FB189
:102C4000E86920F08050E861E06988B36968C1F301
:102C50008101022944D00228C6F8608004D0FFF721
:102C600033F8044638E034E0FFF72EF8074604E076
:102C7000FFF72AF8C01B02282BD828688001F7D458
:102C8000206AB0F5803F05D16868A16820F4003063
:102C900008436860D4E908010843696821F47411A5
:102CA00008436860C6F86090FFF70EF8044606E037
:102CB00025E000BFFFF708F8001B022809D82868A4
:102CC0008001F7D51BE000BFFEF7FEFF001B0228C6
:102CD00002D90320BDE8F88F28688001F4D40EE003
:102CE0000128F7D06868226A00F48031914204D14B
:102CF000616A00F47010884201D00120EAE70020E8
:102D0000E8E7000000100240000042428004424216
:102D10002000002000700040F8B505004FF00000D2
:102D200016460C46009006D02CB100226946284673
:102D300000F019F808B10120F8BD287B2070E87B6D
:102D4000E070697B6170A97BA17056B100F0DFFF74
:102D5000E070607800F0DBFF6070A07800F0D7FFD3
:102D6000A0700020F8BD2DE9F04791460C465FEABF
:102D700000084AD084B3D8F800004068400744D423
:102D8000404601F063F84FF461620546B0FBF2F192
:102D9000B0FBF2F302FB13503C23B0FBF3F0B5FBA6
:102DA000F2F6607002FB1650B0FBF3F203FB120068
:102DB000A070182931D31820B1FBF0F7B1FBF0F265
:102DC00000FB12102070404601F039F8411C04D07D
:102DD000A84202D9461B02E017E04FF0FF36A7EBEE
:102DE000071000EB4000C0EB001005EBC0152946B2
:102DF000404601F07AF840B9701C01D0711900E02A
:102E00003146404601F05DF810B10120BDE8F08781
:102E10003946404600F086FF00E02170B9F1000F0E
:102E20000BD0207800F073FF2070607800F06FFF07
:102E30006070A07800F06BFFA0700020E6E7000053
:102E400070B5040003D0607C002610B105E00120BD
:102E500070BD2674204600F03DF8022060742046C4
:102E600000F00AF9042550BB204600F0B2FF30BB49
:102E70002068416821F007014160A06820B1144832
:102E8000016821F0010101601148001F0168A2687A
:102E900021F46071114301606068411C04D101207C
:102EA000FFF706FC58B1401E2268C0F30341916051
:102EB000216880B2C860204600F0A6FF08B16574A2
:102EC000C5E7E67301206073A0736074002070BDD5
:102ED000306C004008B50068084988420DD1FFF702
:102EE000E1FB0748C16941F00061C161C069054962
:102EF00000F0006000900120086008BD002800403C
:102F0000001002403C0442422DE9F0410D4604000D
:102F10003BD0C5B3207C01283AD04FF0010884F89B
:102F2000108002206074E87872B300F0E7FEE0736E
:102F3000687800F0E3FE6073A87800F0DFFEA0730D
:102F4000C2B2617BE07B00F091FF207328702046C5
:102F500000F07CFF4FF46161B0FBF1F1002518290E
:102F60002DD91822B1FBF2F1A1EB011101EB4101C6
:102F7000C1EB011100EBC1163146204600F0B5FF50
:102F80000427C8B90BE000E004E00120BDE8F081AF
:102F90000220FBE7E07368786073A878CFE72046EB
:102FA00000F04DFF411C0AD0B04208D2064901444E
:102FB000204600F086FF10B167742574E5E784F8B9
:102FC000118025740020E1E7805101002DE9F041D6
:102FD0000D46040024D01DB3207C012823D04FF0DF
:102FE000010884F81080022060742878EAB100F0AB
:102FF00085FE4FF4616100FB01F6687800F07EFE0B
:10300000C0EB001006EB8006A87800F077FE3518BC
:103010002946204600F069FF0026042710BB0FE078
:103020000120BDE8F0810220FBE74FF461614843D5
:103030006978C1EB011100EB8100A9784518E7E739
:103040002068416821F005014160204600F0F7FE4C
:10305000411C0AD0A84208D206490144204600F08B
:1030600030FF10B167742674DAE784F81180267493
:103070000020D6E78051010070B504000AD0206816
:10308000416821F008014160FEF71EFE05464FF43D
:103090007A7608E0012070BDFEF716FE401BB042B4
:1030A00001D9032070BD206840680007F4D50020D6
:1030B00070BD10B5401EB0F1807F01D3012010BD5E
:1030C0004FF0E02460610F21601701F0BAF8002092
:1030D000A06107202061002010BD704710B50400DA
:1030E00015D0242084F841002068C16821F40051E3
:1030F000C160204600F076F90020606484F8410049
:1031000084F8420044F8300F6060207410BD012044
:1031100010BD7047F8B5016804460868CA684B6975
:1031200010F00F0F4FF0000559D003F0010602F424
:103130009077374365D0C10705D0D10503D5616CC1
:1031400041F001016164410705D5D90703D0616CE5
:1031500041F002016164810705D5D90703D0616C94
:1031600041F004016164010707D502F020013143F9
:1031700003D0616C41F008016164616C00293AD0B0
:10318000800604D5900602D5204600F048FF20684E
:103190004069616CC0F38010090700D460B3204619
:1031A00000F016FF20684069400621D520681430E1
:1031B00050E8001F21F0400140E80012002AF5D13C
:1031C000E06BA8B16D494163E06BFEF7E7FA0028B8
:1031D00011D0E06B416B01B0BDE8F04008478306B9
:1031E0000FD593060DD52046BDE8F84000F017BF77
:1031F0002046FFF78EFFF8BD2046FFF78AFF656483
:10320000F8BD266B2023012E7CD1C6067AD5D606C2
:1032100078D508684868009048694FF00206400673
:1032200040D5E16B086840680004000CE8D0A28D2E
:103230008242E5D9E085886920282DD020680C30AD
:1032400050E8001F21F4807140E80012002AF5D1F7
:103250002068143050E8001F21F0010140E80012FE
:10326000002AF5D12068143050E8001F21F04001F9
:1032700040E80012002AF5D184F842302563206826
:103280000C3050E8001F21F0100140E80012002A25
:10329000F5D1E06BFEF75EFA6663A08DE18D401A12
:1032A00081B22AE0A08DE18D401A81B2E08D002824
:1032B000A6D00029A4D022680C3252E8000F20F4D6
:1032C000907042E80007002FF5D12068143050E8D4
:1032D000002F22F0010240E80027002FF5D184F8EA
:1032E0004230256320680C3050E8002F22F0100295
:1032F00040E80023002BF5D166632046FFF7EDFE82
:10330000F8BDFFE705062BD5150629D594F8410031
:103310002128F5D1A068B0F5805F01D12069B0B156
:10332000206A411C2162216800784860E08C401EC0
:103330000004000CE084E3D12068C16821F0800122
:10334000C1602068C16841F04001C160D8E7206ACF
:103350000088C0F308004860206A801C2062E5E70E
:103360004006CDD55006CBD5CA68204622F0400293
:10337000CA6084F8413000F03AF9C1E7C13F000863
:1033800070B5040004D094F84100002510B106E0A7
:10339000012070BD84F84050204600F03FF8242002
:1033A00084F841002068C16821F40051C1602046C2
:1033B00000F096FE2068016921F4904101612068C7
:1033C000416921F02A0141612068C16841F400513E
:1033D000C1606564202084F8410084F84200656380
:1033E000002070BD10B50068094988420ED1094817
:1033F000816921F4804181614FF4C0610648FEF784
:10340000DDFABDE810402520FFF7FCB810BD000034
:1034100000380140001002400008014030B585B07E
:10342000002400940194029403940068184988428F
:103430002CD11848816941F480418161816901F48E
:1034400080410491816941F0040181618069124DDC
:1034500000F0040004904FF40070009002200190EE
:103460000320039069462846FEF734FB2815CDE972
:103470000004694628460294FEF72CFB0022052131
:103480002520FFF7DDF82520FFF7CDF805B030BD8A
:103490000038014000100240000801402DE9F84FBB
:1034A000044690F842009A4616460D46202802D05F
:1034B0000220BDE8F88FB5B1AEB1002060642221D2
:1034C00084F842102063FEF7FFFBA6858146E6855F
:1034D000A0684FF480582027404501D1206920B1D1
:1034E0002E46002529E00120E3E7002625E04B4693
:1034F000002220212046CDF800A000F04DFE18B19A
:1035000084F842700320D4E726B1A06840451AD061
:1035100038B108E020684068C0F3080025F8020BC5
:1035200008E0206978B12068406800F07F0000BFA3
:1035300006F8010BE08D401EE085E08D0028D6D115
:1035400084F84270B5E720684068F1E770472DE9DC
:10355000F843044690F84100984616460D46202848
:1035600002D00220BDE8F88385B17EB100206064FE
:10357000212084F84100FEF7A7FBA6848146E6845B
:10358000A0682027B0F5805F02D003E00120E9E7C2
:10359000206910B12E4600250EE000260CE08021A7
:1035A000204600F0F9FDA8B9C6B116F8010B216854
:1035B0004860E08C401EE084E08C4B464FF00002F7
:1035C000CDF800800028EAD14FF04001204600F0FD
:1035D000E3FD40B184F841700320C3E735F8020BE6
:1035E000C0F30800E3E784F841700020BAE77047B1
:1035F000FEE701684A69D24352050FD46FF4806236
:103600004A61002140F8301F202242738173026911
:1036100042F00402026101730120704700207047EC
:10362000F8B50446C06A1E460D461746082807D05E
:10363000012805D010F5803F02D0206B122804D15C
:103640002068016841F480710160134600224FF048
:1036500001112046009600F02FF940B12068006863
:10366000C00502D54FF4007020640320F8BD206926
:10367000B0F5804F0ED00620216800EAD51040F04A
:10368000F000086133463A460B49204600F05CF9E9
:1036900078B902E005F0FE0000E0E8B221680861B8
:1036A000054933463A46891F204600F04DF9002867
:1036B000DCD00120F8BD0000080001002DE9F84F22
:1036C0000446006889460B9D01689846174641F4F8
:1036D000806101602068016841F48071016000959B
:1036E0004FF0011B0022594620460A9B00F0E4F8E7
:1036F0004FF4007A40B120680068C00501D5C4F8D5
:1037000040A00320BDE8F88F216809F0FE000861A1
:103710002B46284920460A9A00F016F9F0BB20688B
:103720004169806900902A4620460A9900F0A2F972
:1037300040B1206C04283AD12068016841F400713E
:10374000016034E0FEB2B8F1010F09D02168380AF7
:1037500008612A4620460A9900F08CF90028E8D131
:10376000206806612A4620460A9900F083F900285D
:10377000DFD12068016841F480710160009500226A
:10378000594620460A9B00F097F80028B3D12168DB
:1037900009F0FF0040F00100086100E007E02B465F
:1037A000044920460A9A00F0CFF80028AAD0012048
:1037B000A8E70000020001002DE9F8430446006874
:1037C0000D46DDE9089701689846164641F4807178
:1037D00001604B4600224FF001112046009700F097
:1037E0006BF848B120680068C00502D54FF400703E
:1037F00020640320BDE8F883216805F0FE0008611D
:103800003B464A461549204600F09EF888B9206894
:103810004169806900903A464946204600F02AF9FD
:1038200048B1206C042804D12068016841F400717B
:1038300001600120DEE7F5B2B8F1010F09D021687F
:10384000300A08613A464946204600F013F900283C
:10385000E7D1206805610020CCE7000002000100EC
:1038600070B516460D4604461EE02046FFF7C1FE21
:1038700008B1012070BD681C16D0FEF725FA801B28
:10388000A84200D885B920684069C04340070BD5DD
:10389000002044F8300F20216173A073216941F0AA
:1038A000200121612073E4E720684069C04340079C
:1038B000DBD4002070BD00002DE9F0479846174684
:1038C0000D460446C1F30746DDF820902AE000BF0C
:1038D000B8F1FF3F26D0FEF7F7F9A0EB090141450B
:1038E00002D8B8F1000F1DD12068012E16D08069D2
:1038F00025EA00000004000C12D00020B84211D1CB
:10390000002044F8300F20216173A073216941F039
:103910002001216120730120BDE8F0874069E7E7BD
:103920000120EBE72068012E0AD0806925EA00001B
:103930000004000C06D00020B842C9D00020EBE7FC
:103940004069F3E70120F7E72DE9F047984616466E
:103950000D4604464FF000094FF0200AC1F3074717
:1039600023E020684069C043400515D42068016801
:1039700041F40071016021686FF480604861C4F80F
:10398000309084F83DA084F83E90216C41F0040111
:10399000216484F83C9021E0701C06D0FEF794F975
:1039A000A0EB0800B04203D816B1012F1FD021E0D0
:1039B0002068012F15D0806925EA00000004000C62
:1039C00018D000BF44F8309F84F80DA084F80E9002
:1039D000216941F02001216184F80C900120BDE8AB
:1039E000F087406925EA00000004000CEAD1206855
:1039F000406901E02068806925EA00000004000CAD
:103A0000AFD1ECE72DE9F041002590460E46044683
:103A1000202728E04069C043C0060CD454F8301B6E
:103A20006FF01000486144F810596777A577206A55
:103A30002062257714E0FEF747F9A0EB0800B042BA
:103A400000D886B920684069C04340060BD544F8C9
:103A5000305F6773A573206940F0200020612573F3
:103A60000120BDE8F08120684169C9434906D1D4ED
:103A70000020F6E770B516460D4604461EE02046C7
:103A8000FFF7B7FD08B1012070BD681C16D0FEF726
:103A90001BF9801BA84200D885B920684069C04343
:103AA00000060BD5002044F8300F20216173A0736D
:103AB000216941F0200121612073E4E72068406919
:103AC000C0430006DBD4002070BD000010B5AAB0D2
:103AD00000202790289027A801F0DEFA234C244BE1
:103AE0000DF18C0CA0610FCB8CE80F00002123A8F6
:103AF00001F046FA606100F0C1FB1D491C22103143
:103B00006846FCF75AFD0021684601F027FB18497A
:103B100020601C222C3107A8FCF74FFD002107A8CC
:103B200001F01CFB124960601C2248310EA8FCF712
:103B300044FD00210EA801F011FB0D49A0601C22DC
:103B4000643115A8FCF739FD002115A801F006FB2A
:103B50000749E0601C2280311CA8FCF72EFD0021E3
:103B60001CA801F0FBFA20612AB010BD0000002063
:103B7000CC77000800B585B000200190029003903A
:103B80001448816941F010018161816901F01001DF
:103B90000491816941F020018161816901F0200176
:103BA0000491816941F008018161816901F0080196
:103BB0000491816941F0040181618069694600F0E6
:103BC000040004901F2000900348FDF783FF05B018
:103BD00000BD000000100240000C01400D4810B56F
:103BE0000B4901600C49416000214FF48042816023
:103BF000C0E9031241618161C1610162FEF76AF8A7
:103C0000002803D0BDE81040FDF717BD10BD00002F
:103C100000540040EC020020A0860100094810B5C5
:103C2000074901600421416040F2E2418160FEF7F2
:103C300055FC002803D0BDE81040FDF7FEBC10BDC8
:103C400000300040400300201CB500241A480194B5
:103C5000184900940160611E41604FF480718160D9
:103C6000FFF7EEF808B1FDF7E8FC8DF804408DF899
:103C700005408DF80640012201A90F48FFF7A6F97B
:103C800008B1FDF7DAFC03208DF8000001208DF863
:103C9000010028208DF8020026208DF80300012263
:103CA00069460548FFF730F9002801D0FDF7C5FC4B
:103CB0001CBD0000002800404C0300200D4810B53A
:103CC0000B4901604FF41651416000214FF48062AE
:103CD0008160C0E903120C22C0E90521C161FFF730
:103CE0004FFB002803D0BDE81040FDF7A6BC10BD77
:103CF0000038014060030020FEE7FEE7010901EB08
:103D0000810100F00F0000EB4100C0B270470021BC
:103D100002E00A38C0B2491C0A28FAD2090740EA70
:103D2000116070472DE9F04104460025C07B627B9D
:103D3000A37B42E0012A16D0032A14D0052A12D010
:103D4000072A10D0082A0ED00A2A0CD00C2A0AD032
:103D5000042A10D0062A0ED0092A0CD00B2A0AD029
:103D6000022A0DD028E01F2B0CD30C2A05D10122EA
:103D70001346401C20E01E2B04D30123521C1BE0E1
:103D80001C2B02D203F1010316E011D183B29E076E
:103D900010D16426B3FBF6F706FB173636B94FF49D
:103DA000C876B3FBF6F706FB17331BB91D2303E0F8
:103DB0001D2B01D1032201236D1C8D42BAD3D1B238
:103DC000E0736173DAB2A27300F050F82073BDE8BB
:103DD000F08170B50446FDF777FF05464FF47A761B
:103DE00006E0FDF771FF401BB04201D9032070BD12
:103DF000206840688006F4D52068416841F01001D1
:103E00004160002070BD000070B504460068416844
:103E100021F010014160FDF757FF05464FF47A7617
:103E200007E000BFFDF750FF401BB04201D903205F
:103E300070BD206840688006F4D5002070BD016820
:103E4000086A496A89B241EA00407047006881699E
:103E50008AB2C1698BB2816989B28A4203D0C069D2
:103E600061F31F40704743EA02407047F0B5642495
:103E7000C1EBC1030927A500072603EB01130329A2
:103E8000B3FBF7F100F5FA60114401440AD2401E79
:103E9000B0FBF4F201EB9001B0FBF5F0891A084495
:103EA000001D08E0B0FBF4F201EB9001B0FBF5F06F
:103EB000891A0844801CB0FBF6F106FB1100C0B261
:103EC000F0BD70B50D4606460024FFF782FF48B9E5
:103ED0003168280C08623168A8B248623046FFF7A2
:103EE00093FF00B10124204670BD70B50D46064613
:103EF0000024FFF76EFF48B93168280C88613168EB
:103F0000A8B2C8613046FFF77FFF00B10124204608
:103F100070BD01F067BD01F084BD01F02CBD01F062
:103F2000E0BD01F040BE10B5FEF70EFB02F0E8FF69
:103F3000012803D0BDE8104002F0ECBA10BD70B506
:103F400094B028216846FCF76AFB14210AA8FCF704
:103F500066FB00250F95092001241095009011950E
:103F600012954FF4803004940694CDE901050226A1
:103F7000CDE907604FF4E01009906846FEF73CFD7C
:103F800008B172B6FEE70F20CDE90A064FF4806053
:103F9000CDE90C5002210AA80E95FEF751FC08B19C
:103FA00072B6FEE74FF40070CDE90F400FA8FEF7A0
:103FB000D1FB002801D072B6FEE714B070BD704787
:103FC00010B5406A0021C185C184FFF7A2F810BD79
:103FD00001680C3151E8002F22F4907241E800236F
:103FE000002BF5D10168143151E8002F22F00102B5
:103FF00041E80023002BF5D1016B012909D10168AB
:104000000C3151E8002F22F0100241E80023002B70
:10401000F5D1202180F8421000210163704708B5D6
:1040200090F84210222901D0022008BD82684FF486
:1040300080539A4201D1016921B1816A9A421BD011
:104040004AB10AE00268816A5268C2F308020A8033
:10405000816A891C08E0026972B10268526802F044
:104060007F020A70816A491C8162C18D491E090460
:10407000090CC18503D01BE002685268F1E70168B2
:10408000CA6822F02002CA600168CA6822F48072FD
:10409000CA6001684A6922F001024A61202180F861
:1040A000421000214163026B012A03D0FFF74EFA50
:1040B000002008BD016301680C3151E8002F22F097
:1040C000100241E80023002BF5D101680A68D206EE
:1040D00002D50A6849680091818DFEF7FEFFE7E787
:1040E00070B5044600680169E26821F4405111434B
:1040F00001612169A0680843616908432168CA68B1
:1041000041F20C639A430243CA6020684169A26984
:1041100021F44071114341611E492068884202D157
:10412000FEF734FC01E0FEF721FC00EBC00101EBDF
:104130000012606864218000B2FBF0F3B3FBF1F37E
:104140006FF018067343B2FBF0F5B2FBF0F605EB27
:104150008305322303EB0515B5FBF1F5B6FBF1F64C
:1041600005F0F00505EB0615B2FBF0F6B2FBF0F03A
:10417000B0FBF1F06FF01802504306EB800003EB48
:104180000010B0FBF1F0216800F00F0028448860B7
:1041900070BD0000003801402DE9F84398461746ED
:1041A0000D460446089E24E0701C22D0FDF78CFDCD
:1041B000A0EB0800B0421AD8CEB12068C168490708
:1041C00017D5802D15D0402D13D00168C94309079C
:1041D0000FD401680025406800902046FFF7F8FEE4
:1041E0000820606484F840500120BDE8F883032073
:1041F000FBE72068006835EA000004D00020B842E0
:10420000D2D00020F1E70120F9E700000148FEF7D5
:1042100081BF000060030020FEE7490050EAC12092
:1042200018BF04204A0D18BF40F0010040F2FF7291
:10423000B2EB515F08BF40F00200012808BF052023
:1042400070470907090E002804DB00F1E02080F820
:104250000014704700F00F0000F1E02080F8141DFA
:10426000704730380A2801D201207047002070477B
:104270007047000000487047A803002070B55448FC
:104280009AB0054600F0CDF8FFF7F2FF01F07EFA94
:104290004F480838044600F043F901AA06A9204611
:1042A00000F048F9002428B9182106A8FCF7B7F94E
:1042B000019402944FF4B470ADF80C40ADF80E00C8
:1042C000ADF810004FF48760ADF81200ADF814009F
:1042D0004FF4B460ADF816003D4806AA7C3803A937
:1042E000064601F0A5FDBDF8040018B101A930464D
:1042F00001F0BCFD06A9284600F0A1F83448354974
:10430000A838064601F0E2FC31493046A4390D4692
:1043100001F0CAFC01F034FA00902D482B466822C7
:104320002D49943800F048FA01F02AFA034628484B
:1043300027222949483800F04EFB25480023012256
:1043400026493C3800F095F82548CDE90C040125B4
:10435000ADF840408DF84250ADF838400F948DF8DC
:104360004340119501F00CFA129019480CA9FC3841
:1043700001F086FA4FF41650CDE91404C820CDE9B7
:1043800016408DF84C5002208DF86000104947F21D
:104390003050ADF86200FC3901F11C0013AA05464B
:1043A00000F034FD0A492846C0390C4600F024FDCF
:1043B00007480C4A2146B83800F07BFC04484FF40B
:1043C000FA620949243802F03EF81AB070BD0000C4
:1043D000A40400204C030020EC020020000C01404B
:1043E00060030020827800084003002070B5144666
:1043F0000D46064601F04EFE224629463046FCF7A1
:1044000097F8BDE8704001F065BE0B46002807D064
:10441000002B05D000F1200118221846FFF7E6BF57
:10442000704710B5040009D001F034FE4021204649
:10443000FCF7F5F8BDE8104001F04CBE10BD0028B7
:1044400005D0002903D018222030FFF7CFBF7047D6
:10445000002805D0002903D008223830FFF7C6BF56
:104460007047002804D0002902D02022FFF7BEBFE9
:10447000704770B504000AD02160A280A3710025A6
:10448000E5712572FDF720FCC4E90305257570BDB3
:104490002DE9F04190460F4604004FF000060AD087
:1044A000A1882068FDF706FCA17901B101218842AD
:1044B00004D1012503E00020BDE8F0810025FDF7CF
:1044C00003FC217AA94201D02572E060E168411A1B
:1044D000B9420AD3E179A94207D0E57125B100219B
:1044E00020612175012600E00226E17949B1217D94
:1044F00039B92169411A414503D30120207546F09D
:1045000004063046D8E710B504460020024604E011
:10451000A35C43404FEAF370521C8A42F8D310BDAB
:10452000002803D00249016049144160704700002F
:1045300000FC00082DE9F04115460E4688B186B111
:1045400004680F49206888420BD1A088012808D14F
:1045500004F10C00E1880746FFF7D5FFA16881420E
:1045600002D00020BDE8F081182239463046FCF721
:1045700024F81DB1606A2860A06A68600120F1E734
:10458000384D464D2DE9F04391B04FF000061546E9
:104590000F4604000F9603D017B160682C2803D291
:1045A000002011B0BDE8F0832C216846FCF737F8F5
:1045B0001D4800904FF001082020ADF80480ADF8B0
:1045C00006008146394603A818220746FBF7F5FF87
:1045D0001DB12868099068680A9049463846FFF777
:1045E00092FF0290FDF7D6F90B962068CDE90D08F1
:1045F0000FA90BA8FDF730F958B924686D4604F1EE
:104600002C060BE00023214602202A68FDF782F9E0
:1046100010B1FDF775F9C3E7241D2D1DB442F1D388
:10462000FDF76EF90120BCE7384D464D00F00F0153
:10463000000900EB800001EB4000C0B270470A2186
:10464000B0FBF1F201FB1202B0FBF1F042EA001004
:10465000C0B270472DE9F047040004D0278840F22B
:10466000B275AF4202D20020BDE8F08700264FF4B9
:10467000B77840F26D1909E0284600F02FF808B12C
:10468000404600E048466D1C0644ADB2BD42F3D33F
:10469000A078114A218802EB4002022832F8025C1D
:1046A00005D9084600F01AF808B16D1CADB2A8197A
:1046B000E178401E0844A17940F2A322504301EB67
:1046C000C01120794FF4616250436279C2EB02124B
:1046D00000EB82000844C7E768780008810705D12D
:1046E0006421B0FBF1F201FB120141B94FF4C87132
:1046F000B0FBF1F201FB120008B10020704701206D
:104700007047002805D0C068002802D0322100F090
:10471000F3BC704770B586B00C46050016D028680B
:10472000A0B19CB12846FFF7ECFF6422072103A843
:104730008DE8070028790123410000222868FDF751
:10474000D9FC0646284600F0E0F816B1002006B075
:1047500070BD9DF80C0000F07F00FFF767FFA071AF
:104760009DF80D0000F07F00FFF760FF60719DF87D
:104770000E0000F03F00FFF759FF20719DF80F0079
:1047800000F00700FFF752FFE0719DF8100000F005
:104790003F00FFF74BFFE0709DF8110000F01F0095
:1047A000FFF744FFA0709DF81200FFF73FFF00F5F0
:1047B000FA6020800120CAE710B50028029C08D0CA
:1047C000002906D00160027100218360C0E9034125
:1047D000017510BD70B5040013D0206888B1204663
:1047E000FFF78FFF20790A23410002222068FDF79E
:1047F00035FB0546204600F088F825B100202075DD
:1048000070BD002070BD0120F9E730B585B00C46C1
:1048100005003CD02868D0B3CCB3A079FFF70FFFD8
:104820008DF80C006079FFF70AFF8DF80D002079F4
:10483000FFF705FF8DF80E00E079FFF700FF8DF818
:104840000F00E078FFF7FBFE8DF81000A078FFF76F
:10485000F6FE8DF811002078A0F5FA60C0B2FFF7DF
:10486000EEFE8DF812002846FFF74BFF6422072169
:1048700003A88DE807002879012341000022286859
:10488000FDF766FD0446284600F03FF814B100200D
:1048900005B030BD0120FBE77FB5040034D0A0682F
:1048A000002831D0416800292ED0806800282BD004
:1048B000FDF70AFA21694EF66022411A914223D38C
:1048C00020612046FFF786FF00281DD0694620465C
:1048D000FFF720FF002817D0A168D1E9000202A944
:1048E00090476846FFF7B6FE054602A8FFF7B2FEFE
:1048F000854201D9281A00E0401B052804D9A16887
:104900008A680868694690477FBD002804D0C0685F
:10491000002801D000F0C8BB7047EFF305800028E5
:1049200000D00120704710B5002200F041F8BDE82A
:1049300010400220FCF77EBF10B504463220FCF781
:1049400079FF3021204600F031F90520FCF772FF95
:104950003021204600F02AF90520FCF76BFF3021BA
:10496000204600F023F90520FCF764FF20212046B3
:1049700000F01CF928212046FFF7D5FF0C21204626
:10498000FFF7D1FF06212046FFF7CDFF012120468A
:10499000FFF7C9FFBDE810400520FCF74BBF00281A
:1049A00005D08068002802D0322100F0A5BB7047F6
:1049B00070B514460A460546100701F0F001060ED0
:1049C0002143284600F0F2F846EA04012846BDE8F3
:1049D000704000F0EBB810B5040013D0002911D0DE
:1049E00021602271012060710020A0712046A36027
:1049F000FFF7D5FF2046FFF79FFF2046BDE8104098
:104A000000F0CCB810BD002807D081790722491CDE
:104A1000B1FBF2F302FB131181717047F0B58FB057
:104A20001D4606007CD000297AD0002A78D0002DBF
:104A300076D048784B6908B13AA700E03AA7B07938
:104A400038B1072809D2DFE800F008080A0C0E1078
:104A500012008C69B4F5000F0ADA146808E0546893
:104A600006E0946804E0546902E0146900E0D46848
:104A7000184602F003FC8DE883002CA2112104A843
:104A8000FBF714FC204602F0F9FBB279072A11D299
:104A9000DFE802F004060C080A0C0E0027A30AE067
:104AA00027A308E027A306E027A304E027A302E04A
:104AB00027A300E027A36A792C79CDE90242CDE94A
:104AC000000125A2112109A8FBF7F0FB3046FFF7F2
:104AD00066FF00221146304600F052F823A130460E
:104AE00000F089F800220121304600F049F81FA1AA
:104AF000304600F080F800221146304600F040F8C1
:104B000004A9304600F077F800220121304600F079
:104B100037F809A9304600F06EF8304600F03EF84C
:104B20000FB0F0BD4F4B000045520000503A253405
:104B30002E31666B572025730000000054000000E2
:104B40004400000059000000480000004D00000033
:104B50004C000000200000004525733A25352E3119
:104B60006620253032753A2530327500202020200D
:104B700020202020202020202020202000000000B5
:104B8000012900D90121044B595C1144C9B241F0FB
:104B90008001FFF7C8BE000080780008002804D01C
:104BA0008068002801D000F07FBA704770B50C46CD
:104BB000054600F00FF844F00401284600F00AF81A
:104BC0000120FCF737FE04F0FB012846BDE87040E9
:104BD000AFF300801CB5427902B108220A438DF878
:104BE000042064210091017900684900012301AA91
:104BF000FDF7EAF91CBD70B50C46054604E02846F1
:104C00000122641CFFF7D4FE21780029F7D170BD82
:104C1000FDF7A2FCFFF793F9FEF7ACFFFEF7DEFF0E
:104C2000FEF7FCFFFFF710F8FFF748F8FEF74EFF1E
:104C300000F0A1F9FEE701460020842900D0C81C3D
:104C400070477CB514460D000FD074B168B146684A
:104C50005EB12A88A2F57F41FF3906D001A90091F3
:104C6000A97800680223B04708B100207CBDEE7827
:104C70002B79BDF80420BDF80610012E02D115468F
:104C80000A46294663B162F30700120A62F30F2055
:104C900061F31740090A61F31F60206001207CBDA9
:104CA000130A63F3070062F30F200A0A62F3174046
:104CB000F1E700280AD0002908D0002A06D0D1E95F
:104CC00000310360C0E901120021017370472DE932
:104CD000F0410C4605004FF001064FF0000716D0DA
:104CE000ACB1A86898B120212046FBF798FCFCF7EE
:104CF000EBFFE061A9684FF6FF780A8842450AD0C9
:104D00000127221D2846FFF79CFF18B103E0002071
:104D1000BDE8F0810026A968CA88424508D001276D
:104D200004F108022846891DFFF78BFF00B9002611
:104D3000A9688A89424508D0012704F10C02284657
:104D40000C31FFF77EFF00B90026A9684A8A424568
:104D500008D0012704F1100228461231FFF771FF35
:104D600000B90026A9680A8B424508D0012704F142
:104D7000140228461831FFF764FF00B90026A9681D
:104D8000CA8B424508D004F1180228461E31FFF7AD
:104D900058FF10B9002600E017B136B1012000E03D
:104DA000002020701EB1012002E0002020700020B1
:104DB000607028732078ABE770B505464FF6FF703A
:104DC00000224AF201040EE0AB5C58400023C60703
:104DD00002D084EA500000E040085B1CDBB2082BE4
:104DE000F5D3521C92B28A42EED370BD38B5049C02
:104DF000009400F09CF838BD002804D0002902D0AF
:104E00000860014848607047ED4D000870B51446D1
:104E10000E46050013D0002E11D0002C0FD0182202
:104E20002146281D2E60FBF7C8FB00202877241D93
:104E3000304694E80E00BDE8704000F0F1BC70BD53
:104E40002DE9F04FA7B01D46DDF8C090884604005C
:104E50004FF0FF3B55D02068A0B35FEA090050D067
:104E600085B3402D4DD8608B904201D8101A82B284
:104E700020798DF890008DF89180100A8DF89200BD
:104E8000280A8DF894008DF893208DF8955006210E
:104E900024A8FFF791FF8DF89600000A8DF897007F
:104EA000052707EB450086B2606902ABCDE90060DB
:104EB000082224A9206800F022FD4FF0030A10B157
:104EC00084F81CA01DE0B01E81B202A8FFF774FF99
:104ED00002A98A1932F8022C904202D004202077CD
:104EE0000FE09DF808002279904209D19DF8092031
:104EF000424505D19DF80A006A06120E904204D080
:104F00002777584627B0BDE8F08F0020524609E0C9
:104F100002EB40039BB20B441B885BBA29F81030AC
:104F2000401C80B2A842F3D300202077EAE72DE9A5
:104F3000F84F98460A9F91468A4605004FF0FF3683
:104F40000FD000240AE043464A46514628460097BF
:104F5000FFF776FF002805D0641CE4B2287EA0424B
:104F6000F1D23046BDE8F88F10B500B9012001F04C
:104F700033F9002010BD10B501F0CAF9002010BDB2
:104F800038B5D0E9011204683AB1C3682BB10020EA
:104F90000090204601F00DFB38BD2046BDE83840AA
:104FA000002201F0E5BA00002DE9FF410D004FF0AD
:104FB0000006CDE9016507461ED000240396501C6B
:104FC0001FD002B11446FFF7A8FC69464FF0100845
:104FD000E8B103AA2846091D01F0F6FD012813D007
:104FE00000960398E8B114494FF080500860BFF371
:104FF0004F8FBFF36F8F14E0802031462A46009018
:1050000011E04FF0FF34DEE7CDF80080E9E72246FB
:105010002846091D01F03CFD012808D054B140206C
:1050200000909DE8070087E80700BDE8FF81CDF804
:105030000080F6E70020F3E704ED00E037B5054611
:1050400082B000200090140000D10124FFF765FC1D
:105050004FF0000388B16A4603A9284601F0D0FB4F
:10506000012811D1009890B10A494FF08050086092
:10507000BFF34F8FBFF36F8F09E0224603A9284685
:1050800001F00EFB012802D0FF2005B030BD00204A
:10509000FBE7000004ED00E041684FF0010009B1BA
:1050A00001F059BA01F04CBA38B500240546009415
:1050B000FFF733FC90B16946284601F000FC012857
:1050C00001D0FF2038BD009888B10A494FF08050C8
:1050D0000860BFF34F8FBFF36F8F08E000231A46BD
:1050E0001946284601F0DCFA012800D0FF242046AA
:1050F00038BD000004ED00E038B505004FF00000B9
:1051000000900FD00024481C0ED001B10C46FFF7D0
:1051100004FCB8B16A460021284601F055FD01287B
:1051200016D104E0802038BD4FF0FF34EFE700983F
:1051300080B109494FF080500860BFF34F8FBFF333
:105140006F8F07E02146284601F08CFD012801D031
:10515000FF2038BD002038BD04ED00E07FB50D46CE
:1051600004464169B0F9080081B1A16971B1FFF746
:1051700062FDD4E905128DE80700D4E900102B4642
:10518000226901F092FE039004B070BDFFF753FD59
:1051900003A9CDE90001208A2B4682B2D4E9001090
:1051A00001F056FE012801D00020EDE70398EBE75F
:1051B0002DE9F041184C0F460546E6682068001DB1
:1051C00000F019FF38B9206890F82C1001208840B1
:1051D000216981432161681C07D137B12168BDE88D
:1051E000F0410E48091D00F049BF20683544B54222
:1051F0004560216805D2A06BBDE8F041091D00F0B3
:1052000025BF606B091D00F021FFA06A854200D216
:10521000A562BDE8F081000030000020E405002018
:105220002DE9F041054600F035FF2E4CA068401CEA
:10523000A06020682C4F10B1606940B32DE025605C
:10524000A068012829D1002606EB860007EB800024
:1052500000F0EEFE761C072EF6D323488C3000F0CB
:10526000E7FE2148A03000F0E3FE1F48B43000F014
:10527000DFFE1D48C83000F0DBFE1B48DC3000F0CC
:10528000D7FE19488C3060631430A06305E02068B5
:10529000E96AC06A884200D82560606A401C606282
:1052A000E96A0120226988401043206101EB8100F6
:1052B00007EB8000291D00F0E1FE00F00BFF6069A4
:1052C00000280CD02068E96AC06A884207D20749E2
:1052D0004FF080500860BFF34F8FBFF36F8FBDE872
:1052E000F0810000300000200805002004ED00E0FF
:1052F00030B4026C0B46002A0BD0C1681144C16067
:105300008468A14201D30168C16030BC1846FBF734
:105310000FB930BC70472DE9F041856B1746044644
:105320000026026C82B1C7B1E068FBF701F9E168C1
:10533000206C091AE1602268914202D2A168081A21
:10534000E060022F16D017E02068A8B9A06801F02D
:105350004BFE06460020A0600EE06068FBF7E8F810
:10536000216C606808446060A168884204D32068AA
:10537000606001E005B16D1E6D1CA5633046BDE89F
:10538000F08110B5044690F8510058B101280CD0B6
:1053900002280FD0502080F31188BFF34F8FBFF346
:1053A0006F8FFEE7206B00F0A9FE2046BDE810409D
:1053B00000F0A4BE10BD000010484FF44051420759
:1053C00006D0C01D0D4920F00700411AC1F540511B
:1053D0000B4A00230144C2E900030839183A21F0BE
:1053E000070111604B600B600B1AC0E9001393605A
:1053F0004FF000405360506170470000F8050020F6
:1054000084000020144E154CA6F1C8074FF08058B8
:10541000DFF84C9012E000BF00F03CFEF068C56879
:10542000281D00F0E8FDA068401EA0606068401ED6
:10543000606000F04FFE2846FFF7A3FF6068002879
:10544000EAD138680128F9D9C9F80080BFF34F8F35
:10545000BFF36F8FF2E70000D0050020300000207E
:1054600004ED00E0002807D00021816001600B46B8
:105470000A46C16001F014B970470346009829B18B
:105480000260C0E90F31012101F0C6B80060F8E701
:105490002DE9F0479A46DDE9098481466FF0030360
:1054A000206B03EB82021044089E20F00707780768
:1054B00007D0502080F31188BFF34F8FBFF36F8F59
:1054C000FEE7002561B1002023180A5C83F8342030
:1054D0000A5C12B1401C1028F6D384F8435001E056
:1054E00084F83450072E00D30626E662C4E911651D
:1054F000201D00F0A8FD04F1180000F0A4FD2461B7
:10550000C6F107006462A061E56484F85050524619
:105510004946384600F010F92060B8F1000F01D07C
:10552000C8F80040BDE8F08730B5114900E01146E9
:105530000A688242FBD34B685C18844203D14068FE
:1055400018444860084643681C18944209D1084C26
:10555000183C2468A24209D052681A4442600A6882
:1055600012680260814200D0086030BD0460F9E733
:105570008400002010B5044600F08CFDA06B28B11B
:105580005FF0000400F0A6FD204610BD0124F9E7FD
:105590000648416B096829B1416BC968C968496807
:1055A000816270474FF0FF31FAE7000030000020C1
:1055B00008484068401C4FF0500080F3118804D028
:1055C000BFF34F8FBFF36F8FFEE7BFF34F8FBFF374
:1055D0006F8FFEE78C0000202DE9F041044600F0BB
:1055E00059FD94F9455004F1240609E0606A48B178
:1055F000304601F08BFD08B100F01CFE6D1E6DB24F
:10560000002DF3DC4FF0FF3684F8456000F062FDBA
:1056100000F040FD94F9445004F1100709E02069BE
:1056200048B1384601F072FD08B100F003FE6D1E6E
:105630006DB2002DF3DC84F84460BDE8F04100F069
:1056400049BD00002DE9F0410546002700F096FE17
:10565000324E306808B9FFF7AFFE706905424ED18F
:10566000C5B3083568070ED005F00700C0F1080083
:105670000544680707D0502080F31188BFF34F8F8F
:10568000BFF36F8FFEE72DB37068854237D823488C
:10569000183001460C6801E020460C466168A942BA
:1056A00002D221680029F7D131688C4227D00768DF
:1056B0002168016060680837411B10290FD9601903
:1056C000420708D0502080F31188BFF34F8FBFF3FB
:1056D0006F8FFEE713E041606560FFF725FF6168AB
:1056E0007068401A7060B268904200D2B060706911
:1056F00001430020C4E90001F068401CF06001F0A3
:105700003FFD780707D0502080F31188BFF34F8FFB
:10571000BFF36F8FFEE73846BDE8F0816C000020D4
:105720000449086818B10868826C521C82640868D1
:10573000704700003000002010B5031F4FF0807448
:105740001C601B1F21F001011960191F024B0B6027
:10575000143940380A6010BDB155000810B5002852
:105760000AD006490B6833B101460022184601F001
:10577000F5F8012800D0002010BD00001C0000201A
:1057800001480068704700001800002010B5002292
:105790002021012000F0ECFE0149086010BD00004E
:1057A0001C00002010B500280ED008490C682CB150
:1057B000014602230022204600F072FF0221BDE8CC
:1057C0001040012000F004B810BD00001C000020B3
:1057D0002DE9F0410D4607460024064E06E0002262
:1057E00039463068FFF72AFC641CE4B2AC42F6D3B9
:1057F000BDE8F081140000203EB5024607480C4683
:1058000001686846FFF7D0FB0098102801D00020FF
:105810003EBD0CB10198206001203EBD1400002067
:105820002DE9F0411E4615460F46040024D020689D
:1058300010B3204600F033F82068FDF74FFC2068D5
:105840004760206805612068C660BDB14FF4805094
:105850002168886021680C204861216800208861E7
:105860002168C8612068FDF78BFD0546204600F0E1
:105870007AF82846BDE8F0810120FBE70020E7E741
:1058800010B504000AD0002908D01C22FAF795FEB2
:105890002046BDE81040002100F00AB810BD0028E5
:1058A00005D08069002802D03221FFF725BC70475F
:1058B00070B50D46040015D0A27C21892B46606886
:1058C00000F011F865B10023E27C218AE06800F065
:1058D0000AF86069002805D0BDE87040FBF7AABF50
:1058E0000123F1E770BD002808D00BB122B901E017
:1058F00012B10022FCF7E3B90122FBE770472DE962
:10590000F0471E46DDE9088915460F4604001BD006
:105910002068C8B1C7B1BDB1B6B15FEA080013D005
:105920002046FFF7BCFF01212046FFF7C1FF4B4691
:105930002A4639462068FDF70AFE05460021204622
:10594000FFF7B6FF1DB109E00120BDE8F0874B4627
:10595000424631462068FDF7A1FD0546204600F08D
:1059600002F82846F1E7002804D08069002801D019
:10597000FFF79ABB70479AB0FEF77CFC04462021E3
:105980006846FAF74CFE002604F1540804F1B40707
:1059900004F1D8054FF47A79FC3418A948461896D2
:1059A000FFF72AFF08A8FFF7D9FE20B1202208A997
:1059B0006846FAF702FE10A92046FEF726FD16A952
:1059C000404600F047F916A92046FEF741FD16AB08
:1059D00010AA69463846FFF721F80221284600F050
:1059E00026FDDAE788B0FEF745FC00F1440400F13B
:1059F000FC0500F1D8064FF47A7769462046FFF798
:105A000066F918B169462846FEF72BFD6846FFF790
:105A1000C9FE0021304600F00AFD3846FFF7A4FA1F
:105A2000EBE794B0FEF726FC0446FCF74DF905467B
:105A300020216846FAF7F3FD002604F1540B4EF6D8
:105A4000602704F1D80A04F1FC0904F1800812A9C6
:105A50004FF47A701296FFF7CFFE30B112980128FA
:105A600003D16846FFF77AFE20B98DF80060FCF795
:105A70002BF907900EA9584600F0ECF80EA94846FD
:105A8000FEF7E6FC0EAA6946404600F0F9F908A9BF
:105A9000404600F0B8F908A94846FEF7D0FCFCF7EC
:105AA00013F9401BB84203D2404600F0A7F998B161
:105AB00008A9404600F0A7F910A9404600F0AFF948
:105AC00010AA08A904F1F400FEF75CFD404600F0BE
:105AD0008FF9FCF7F9F805460121504600F0A7FCC4
